{
  "contractName": "PIAIC114977_Token",
  "abi": [
    {
      "inputs": [
        {
          "internalType": "uint256",
          "name": "_price",
          "type": "uint256"
        }
      ],
      "stateMutability": "nonpayable",
      "type": "constructor"
    },
    {
      "anonymous": false,
      "inputs": [
        {
          "indexed": false,
          "internalType": "string",
          "name": "",
          "type": "string"
        }
      ],
      "name": "AmountReceived",
      "type": "event"
    },
    {
      "anonymous": false,
      "inputs": [
        {
          "indexed": true,
          "internalType": "address",
          "name": "owner",
          "type": "address"
        },
        {
          "indexed": true,
          "internalType": "address",
          "name": "spender",
          "type": "address"
        },
        {
          "indexed": false,
          "internalType": "uint256",
          "name": "value",
          "type": "uint256"
        }
      ],
      "name": "Approval",
      "type": "event"
    },
    {
      "anonymous": false,
      "inputs": [
        {
          "indexed": false,
          "internalType": "bool",
          "name": "success",
          "type": "bool"
        },
        {
          "indexed": false,
          "internalType": "uint256",
          "name": "price",
          "type": "uint256"
        }
      ],
      "name": "Price",
      "type": "event"
    },
    {
      "anonymous": false,
      "inputs": [
        {
          "indexed": false,
          "internalType": "address",
          "name": "owner",
          "type": "address"
        },
        {
          "indexed": false,
          "internalType": "address",
          "name": "recipient",
          "type": "address"
        },
        {
          "indexed": false,
          "internalType": "uint256",
          "name": "numberOfTokens",
          "type": "uint256"
        }
      ],
      "name": "TokensSold",
      "type": "event"
    },
    {
      "anonymous": false,
      "inputs": [
        {
          "indexed": true,
          "internalType": "address",
          "name": "from",
          "type": "address"
        },
        {
          "indexed": true,
          "internalType": "address",
          "name": "to",
          "type": "address"
        },
        {
          "indexed": false,
          "internalType": "uint256",
          "name": "value",
          "type": "uint256"
        }
      ],
      "name": "Transfer",
      "type": "event"
    },
    {
      "inputs": [],
      "name": "decimals",
      "outputs": [
        {
          "internalType": "uint256",
          "name": "",
          "type": "uint256"
        }
      ],
      "stateMutability": "view",
      "type": "function",
      "constant": true
    },
    {
      "inputs": [],
      "name": "name",
      "outputs": [
        {
          "internalType": "string",
          "name": "",
          "type": "string"
        }
      ],
      "stateMutability": "view",
      "type": "function",
      "constant": true
    },
    {
      "inputs": [],
      "name": "owner",
      "outputs": [
        {
          "internalType": "address",
          "name": "",
          "type": "address"
        }
      ],
      "stateMutability": "view",
      "type": "function",
      "constant": true
    },
    {
      "inputs": [],
      "name": "symbol",
      "outputs": [
        {
          "internalType": "string",
          "name": "",
          "type": "string"
        }
      ],
      "stateMutability": "view",
      "type": "function",
      "constant": true
    },
    {
      "inputs": [],
      "name": "tokenPrice",
      "outputs": [
        {
          "internalType": "uint256",
          "name": "",
          "type": "uint256"
        }
      ],
      "stateMutability": "view",
      "type": "function",
      "constant": true
    },
    {
      "stateMutability": "payable",
      "type": "receive",
      "payable": true
    },
    {
      "inputs": [],
      "name": "totalSupply",
      "outputs": [
        {
          "internalType": "uint256",
          "name": "",
          "type": "uint256"
        }
      ],
      "stateMutability": "view",
      "type": "function",
      "constant": true
    },
    {
      "inputs": [
        {
          "internalType": "address",
          "name": "account",
          "type": "address"
        }
      ],
      "name": "balanceOf",
      "outputs": [
        {
          "internalType": "uint256",
          "name": "",
          "type": "uint256"
        }
      ],
      "stateMutability": "view",
      "type": "function",
      "constant": true
    },
    {
      "inputs": [
        {
          "internalType": "address",
          "name": "receipient",
          "type": "address"
        },
        {
          "internalType": "uint256",
          "name": "amount",
          "type": "uint256"
        }
      ],
      "name": "transfer",
      "outputs": [
        {
          "internalType": "bool",
          "name": "",
          "type": "bool"
        }
      ],
      "stateMutability": "nonpayable",
      "type": "function"
    },
    {
      "inputs": [
        {
          "internalType": "address",
          "name": "tokenOwner",
          "type": "address"
        },
        {
          "internalType": "address",
          "name": "spender",
          "type": "address"
        }
      ],
      "name": "allowance",
      "outputs": [
        {
          "internalType": "uint256",
          "name": "",
          "type": "uint256"
        }
      ],
      "stateMutability": "view",
      "type": "function",
      "constant": true
    },
    {
      "inputs": [
        {
          "internalType": "address",
          "name": "spender",
          "type": "address"
        },
        {
          "internalType": "uint256",
          "name": "amount",
          "type": "uint256"
        }
      ],
      "name": "approve",
      "outputs": [
        {
          "internalType": "bool",
          "name": "",
          "type": "bool"
        }
      ],
      "stateMutability": "nonpayable",
      "type": "function"
    },
    {
      "inputs": [
        {
          "internalType": "address",
          "name": "tokenOwner",
          "type": "address"
        },
        {
          "internalType": "address",
          "name": "receipient",
          "type": "address"
        },
        {
          "internalType": "uint256",
          "name": "amount",
          "type": "uint256"
        }
      ],
      "name": "transferFrom",
      "outputs": [
        {
          "internalType": "bool",
          "name": "",
          "type": "bool"
        }
      ],
      "stateMutability": "nonpayable",
      "type": "function"
    },
    {
      "inputs": [
        {
          "internalType": "uint256",
          "name": "_price",
          "type": "uint256"
        }
      ],
      "name": "adjustPrice",
      "outputs": [
        {
          "internalType": "bool",
          "name": "",
          "type": "bool"
        }
      ],
      "stateMutability": "nonpayable",
      "type": "function"
    },
    {
      "inputs": [],
      "name": "buyToken",
      "outputs": [
        {
          "internalType": "bool",
          "name": "",
          "type": "bool"
        }
      ],
      "stateMutability": "payable",
      "type": "function",
      "payable": true
    }
  ],
  "bytecode": "0x60806040523480156200001157600080fd5b506040516200259938038062002599833981810160405281019062000037919062000350565b600081116200007d576040517f08c379a00000000000000000000000000000000000000000000000000000000081526004016200007490620003cf565b60405180910390fd5b33600360006101000a81548173ffffffffffffffffffffffffffffffffffffffff021916908373ffffffffffffffffffffffffffffffffffffffff1602179055506040518060400160405280601181526020017f504941494331313439373720546f6b656e000000000000000000000000000000815250600490805190602001906200010b92919062000289565b506040518060400160405280600681526020017f4243432d31330000000000000000000000000000000000000000000000000000815250600590805190602001906200015992919062000289565b50601260068190555080600781905550600654600a6200017a91906200047a565b620f42406200018a9190620005b7565b600281905550600254600080600360009054906101000a900473ffffffffffffffffffffffffffffffffffffffff1673ffffffffffffffffffffffffffffffffffffffff1673ffffffffffffffffffffffffffffffffffffffff16815260200190815260200160002081905550600360009054906101000a900473ffffffffffffffffffffffffffffffffffffffff1673ffffffffffffffffffffffffffffffffffffffff163073ffffffffffffffffffffffffffffffffffffffff167fddf252ad1be2c89b69c2b068fc378daa952ba7f163c4a11628f55a4df523b3ef6002546040516200027a9190620003f1565b60405180910390a350620006dd565b828054620002979062000622565b90600052602060002090601f016020900481019282620002bb576000855562000307565b82601f10620002d657805160ff191683800117855562000307565b8280016001018555821562000307579182015b8281111562000306578251825591602001919060010190620002e9565b5b5090506200031691906200031a565b5090565b5b80821115620003355760008160009055506001016200031b565b5090565b6000815190506200034a81620006c3565b92915050565b6000602082840312156200036357600080fd5b6000620003738482850162000339565b91505092915050565b60006200038b601f836200040e565b91507f424343313a20546f6b656e207072696365206d7573742062652076616c6964006000830152602082019050919050565b620003c98162000618565b82525050565b60006020820190508181036000830152620003ea816200037c565b9050919050565b6000602082019050620004086000830184620003be565b92915050565b600082825260208201905092915050565b6000808291508390505b6001851115620004715780860481111562000449576200044862000658565b5b6001851615620004595780820291505b80810290506200046985620006b6565b945062000429565b94509492505050565b6000620004878262000618565b9150620004948362000618565b9250620004c37fffffffffffffffffffffffffffffffffffffffffffffffffffffffffffffffff8484620004cb565b905092915050565b600082620004dd5760019050620005b0565b81620004ed5760009050620005b0565b8160018114620005065760028114620005115762000547565b6001915050620005b0565b60ff84111562000526576200052562000658565b5b8360020a91508482111562000540576200053f62000658565b5b50620005b0565b5060208310610133831016604e8410600b8410161715620005815782820a9050838111156200057b576200057a62000658565b5b620005b0565b6200059084848460016200041f565b92509050818404811115620005aa57620005a962000658565b5b81810290505b9392505050565b6000620005c48262000618565b9150620005d18362000618565b9250817fffffffffffffffffffffffffffffffffffffffffffffffffffffffffffffffff04831182151516156200060d576200060c62000658565b5b828202905092915050565b6000819050919050565b600060028204905060018216806200063b57607f821691505b6020821081141562000652576200065162000687565b5b50919050565b7f4e487b7100000000000000000000000000000000000000000000000000000000600052601160045260246000fd5b7f4e487b7100000000000000000000000000000000000000000000000000000000600052602260045260246000fd5b60008160011c9050919050565b620006ce8162000618565b8114620006da57600080fd5b50565b611eac80620006ed6000396000f3fe6080604052600436106100c65760003560e01c806372bf079e1161007f57806395d89b411161005957806395d89b41146102db578063a482171914610306578063a9059cbb14610324578063dd62ed3e146103615761010b565b806372bf079e146102485780637ff9b596146102855780638da5cb5b146102b05761010b565b806306fdde0314610110578063095ea7b31461013b57806318160ddd1461017857806323b872dd146101a3578063313ce567146101e057806370a082311461020b5761010b565b3661010b576100d361039e565b507fb6559a1e71bdc9a0f6bc9c1be20f2ffd701b6338b69491fb716d1dde757a189e604051610101906118d3565b60405180910390a1005b600080fd5b34801561011c57600080fd5b50610125610802565b6040516101329190611891565b60405180910390f35b34801561014757600080fd5b50610162600480360381019061015d919061134c565b610890565b60405161016f919061184d565b60405180910390f35b34801561018457600080fd5b5061018d610a67565b60405161019a9190611a33565b60405180910390f35b3480156101af57600080fd5b506101ca60048036038101906101c591906112fd565b610a71565b6040516101d7919061184d565b60405180910390f35b3480156101ec57600080fd5b506101f5610cd2565b6040516102029190611a33565b60405180910390f35b34801561021757600080fd5b50610232600480360381019061022d9190611298565b610cd8565b60405161023f9190611a33565b60405180910390f35b34801561025457600080fd5b5061026f600480360381019061026a9190611388565b610d20565b60405161027c919061184d565b60405180910390f35b34801561029157600080fd5b5061029a610e3f565b6040516102a79190611a33565b60405180910390f35b3480156102bc57600080fd5b506102c5610e45565b6040516102d291906117fb565b60405180910390f35b3480156102e757600080fd5b506102f0610e6b565b6040516102fd9190611891565b60405180910390f35b61030e61039e565b60405161031b919061184d565b60405180910390f35b34801561033057600080fd5b5061034b6004803603810190610346919061134c565b610ef9565b604051610358919061184d565b60405180910390f35b34801561036d57600080fd5b50610388600480360381019061038391906112c1565b6111e7565b6040516103959190611a33565b60405180910390f35b6000803390503073ffffffffffffffffffffffffffffffffffffffff168173ffffffffffffffffffffffffffffffffffffffff161415610413576040517f08c379a000000000000000000000000000000000000000000000000000000000815260040161040a906118f3565b60405180910390fd5b600073ffffffffffffffffffffffffffffffffffffffff168173ffffffffffffffffffffffffffffffffffffffff161415610483576040517f08c379a000000000000000000000000000000000000000000000000000000000815260040161047a90611a13565b60405180910390fd5b600034116104c6576040517f08c379a00000000000000000000000000000000000000000000000000000000081526004016104bd906118b3565b60405180910390fd5b6000600754600654600a6104da9190611b44565b346104e59190611c62565b6104ef9190611ac0565b905060008111610534576040517f08c379a000000000000000000000000000000000000000000000000000000000815260040161052b90611953565b60405180910390fd5b80600080600360009054906101000a900473ffffffffffffffffffffffffffffffffffffffff1673ffffffffffffffffffffffffffffffffffffffff1673ffffffffffffffffffffffffffffffffffffffff1681526020019081526020016000205410156105d7576040517f08c379a00000000000000000000000000000000000000000000000000000000081526004016105ce90611973565b60405180910390fd5b80600080600360009054906101000a900473ffffffffffffffffffffffffffffffffffffffff1673ffffffffffffffffffffffffffffffffffffffff1673ffffffffffffffffffffffffffffffffffffffff168152602001908152602001600020546106439190611cbc565b600080600360009054906101000a900473ffffffffffffffffffffffffffffffffffffffff1673ffffffffffffffffffffffffffffffffffffffff1673ffffffffffffffffffffffffffffffffffffffff16815260200190815260200160002081905550806000808473ffffffffffffffffffffffffffffffffffffffff1673ffffffffffffffffffffffffffffffffffffffff168152602001908152602001600020546106f19190611a6a565b6000808473ffffffffffffffffffffffffffffffffffffffff1673ffffffffffffffffffffffffffffffffffffffff16815260200190815260200160002081905550600360009054906101000a900473ffffffffffffffffffffffffffffffffffffffff1673ffffffffffffffffffffffffffffffffffffffff166108fc349081150290604051600060405180830381858888f1935050505015801561079b573d6000803e3d6000fd5b507f481809cba951bfbd752234d0504d4719277804f87f6e0da1b5b486c80d808fe4600360009054906101000a900473ffffffffffffffffffffffffffffffffffffffff1683836040516107f193929190611816565b60405180910390a160019250505090565b6004805461080f90611d6b565b80601f016020809104026020016040519081016040528092919081815260200182805461083b90611d6b565b80156108885780601f1061085d57610100808354040283529160200191610888565b820191906000526020600020905b81548152906001019060200180831161086b57829003601f168201915b505050505081565b600080339050600073ffffffffffffffffffffffffffffffffffffffff168173ffffffffffffffffffffffffffffffffffffffff161415610906576040517f08c379a00000000000000000000000000000000000000000000000000000000081526004016108fd90611993565b60405180910390fd5b600073ffffffffffffffffffffffffffffffffffffffff168473ffffffffffffffffffffffffffffffffffffffff161415610976576040517f08c379a000000000000000000000000000000000000000000000000000000000815260040161096d90611a13565b60405180910390fd5b82600160008373ffffffffffffffffffffffffffffffffffffffff1673ffffffffffffffffffffffffffffffffffffffff16815260200190815260200160002060008673ffffffffffffffffffffffffffffffffffffffff1673ffffffffffffffffffffffffffffffffffffffff168152602001908152602001600020819055508373ffffffffffffffffffffffffffffffffffffffff168173ffffffffffffffffffffffffffffffffffffffff167fddf252ad1be2c89b69c2b068fc378daa952ba7f163c4a11628f55a4df523b3ef85604051610a549190611a33565b60405180910390a3600191505092915050565b6000600254905090565b6000803390506000600160008773ffffffffffffffffffffffffffffffffffffffff1673ffffffffffffffffffffffffffffffffffffffff16815260200190815260200160002060008373ffffffffffffffffffffffffffffffffffffffff1673ffffffffffffffffffffffffffffffffffffffff168152602001908152602001600020549050838111610b3a576040517f08c379a0000000000000000000000000000000000000000000000000000000008152600401610b31906119b3565b60405180910390fd5b8381610b469190611cbc565b9050836000808873ffffffffffffffffffffffffffffffffffffffff1673ffffffffffffffffffffffffffffffffffffffff16815260200190815260200160002054610b929190611cbc565b6000808873ffffffffffffffffffffffffffffffffffffffff1673ffffffffffffffffffffffffffffffffffffffff16815260200190815260200160002081905550836000808773ffffffffffffffffffffffffffffffffffffffff1673ffffffffffffffffffffffffffffffffffffffff16815260200190815260200160002054610c1e9190611a6a565b6000808773ffffffffffffffffffffffffffffffffffffffff1673ffffffffffffffffffffffffffffffffffffffff168152602001908152602001600020819055508173ffffffffffffffffffffffffffffffffffffffff168673ffffffffffffffffffffffffffffffffffffffff167f8c5be1e5ebec7d5bd14f71427d1e84f3dd0314c0f7b2291e5b200ac8c7c3b92586604051610cbd9190611a33565b60405180910390a36001925050509392505050565b60065481565b60008060008373ffffffffffffffffffffffffffffffffffffffff1673ffffffffffffffffffffffffffffffffffffffff168152602001908152602001600020549050919050565b6000600360009054906101000a900473ffffffffffffffffffffffffffffffffffffffff1673ffffffffffffffffffffffffffffffffffffffff163373ffffffffffffffffffffffffffffffffffffffff1614610db2576040517f08c379a0000000000000000000000000000000000000000000000000000000008152600401610da9906119f3565b60405180910390fd5b60008211610df5576040517f08c379a0000000000000000000000000000000000000000000000000000000008152600401610dec90611913565b60405180910390fd5b816007819055507ff950bdedf7b8e81e2f3e05db9af878bed96d85d09d6acec77f8c5c71d474ed6c600183604051610e2e929190611868565b60405180910390a160019050919050565b60075481565b600360009054906101000a900473ffffffffffffffffffffffffffffffffffffffff1681565b60058054610e7890611d6b565b80601f0160208091040260200160405190810160405280929190818152602001828054610ea490611d6b565b8015610ef15780601f10610ec657610100808354040283529160200191610ef1565b820191906000526020600020905b815481529060010190602001808311610ed457829003601f168201915b505050505081565b600080339050600073ffffffffffffffffffffffffffffffffffffffff163373ffffffffffffffffffffffffffffffffffffffff161415610f6f576040517f08c379a0000000000000000000000000000000000000000000000000000000008152600401610f6690611933565b60405180910390fd5b600073ffffffffffffffffffffffffffffffffffffffff168473ffffffffffffffffffffffffffffffffffffffff161415610fdf576040517f08c379a0000000000000000000000000000000000000000000000000000000008152600401610fd690611a13565b60405180910390fd5b826000808373ffffffffffffffffffffffffffffffffffffffff1673ffffffffffffffffffffffffffffffffffffffff168152602001908152602001600020541161105f576040517f08c379a0000000000000000000000000000000000000000000000000000000008152600401611056906119d3565b60405180910390fd5b826000808373ffffffffffffffffffffffffffffffffffffffff1673ffffffffffffffffffffffffffffffffffffffff168152602001908152602001600020546110a99190611cbc565b6000808373ffffffffffffffffffffffffffffffffffffffff1673ffffffffffffffffffffffffffffffffffffffff16815260200190815260200160002081905550826000808673ffffffffffffffffffffffffffffffffffffffff1673ffffffffffffffffffffffffffffffffffffffff168152602001908152602001600020546111359190611a6a565b6000808673ffffffffffffffffffffffffffffffffffffffff1673ffffffffffffffffffffffffffffffffffffffff168152602001908152602001600020819055508373ffffffffffffffffffffffffffffffffffffffff168173ffffffffffffffffffffffffffffffffffffffff167fddf252ad1be2c89b69c2b068fc378daa952ba7f163c4a11628f55a4df523b3ef856040516111d49190611a33565b60405180910390a3600191505092915050565b6000600160008473ffffffffffffffffffffffffffffffffffffffff1673ffffffffffffffffffffffffffffffffffffffff16815260200190815260200160002060008373ffffffffffffffffffffffffffffffffffffffff1673ffffffffffffffffffffffffffffffffffffffff16815260200190815260200160002054905092915050565b60008135905061127d81611e48565b92915050565b60008135905061129281611e5f565b92915050565b6000602082840312156112aa57600080fd5b60006112b88482850161126e565b91505092915050565b600080604083850312156112d457600080fd5b60006112e28582860161126e565b92505060206112f38582860161126e565b9150509250929050565b60008060006060848603121561131257600080fd5b60006113208682870161126e565b93505060206113318682870161126e565b925050604061134286828701611283565b9150509250925092565b6000806040838503121561135f57600080fd5b600061136d8582860161126e565b925050602061137e85828601611283565b9150509250929050565b60006020828403121561139a57600080fd5b60006113a884828501611283565b91505092915050565b6113ba81611cf0565b82525050565b6113c981611d02565b82525050565b60006113da82611a4e565b6113e48185611a59565b93506113f4818560208601611d38565b6113fd81611e2a565b840191505092915050565b6000611415601a83611a59565b91507f424343313a20416d6f756e74206d7573742062652076616c69640000000000006000830152602082019050919050565b6000611455601083611a59565b91507f526563656976652066616c6c6261636b000000000000000000000000000000006000830152602082019050919050565b6000611495602083611a59565b91507f424343313a2042757965722063616e6e6f74206265206120636f6e74726163746000830152602082019050919050565b60006114d5601f83611a59565b91507f424343313a20546f6b656e207072696365206d7573742062652076616c6964006000830152602082019050919050565b6000611515602483611a59565b91507f424343313a205472616e736665722066726f6d20746865207a65726f2061646460008301527f72657373000000000000000000000000000000000000000000000000000000006020830152604082019050919050565b600061157b602483611a59565b91507f424343313a204e756d626572206f6620746f6b656e73206d757374206265207660008301527f616c6964000000000000000000000000000000000000000000000000000000006020830152604082019050919050565b60006115e1601983611a59565b91507f424343313a20696e73756666696369656e7420746f6b656e73000000000000006000830152602082019050919050565b6000611621602383611a59565b91507f424343313a20417070726f76652066726f6d20746865207a65726f206164647260008301527f65737300000000000000000000000000000000000000000000000000000000006020830152604082019050919050565b6000611687602583611a59565b91507f424343313a205472616e7366657220616d6f756e74206578636565647320626160008301527f6c616e63650000000000000000000000000000000000000000000000000000006020830152604082019050919050565b60006116ed602483611a59565b91507f4243433a205472616e7366657220616d6f756e7420657863656564732062616c60008301527f616e6365000000000000000000000000000000000000000000000000000000006020830152604082019050919050565b6000611753601e83611a59565b91507f424343313a204f6e6c7920746f6b656e206f776e657220616c6c6f77656400006000830152602082019050919050565b6000611793602283611a59565b91507f424343313a205472616e7366657220746f20746865207a65726f20616464726560008301527f73730000000000000000000000000000000000000000000000000000000000006020830152604082019050919050565b6117f581611d2e565b82525050565b600060208201905061181060008301846113b1565b92915050565b600060608201905061182b60008301866113b1565b61183860208301856113b1565b61184560408301846117ec565b949350505050565b600060208201905061186260008301846113c0565b92915050565b600060408201905061187d60008301856113c0565b61188a60208301846117ec565b9392505050565b600060208201905081810360008301526118ab81846113cf565b905092915050565b600060208201905081810360008301526118cc81611408565b9050919050565b600060208201905081810360008301526118ec81611448565b9050919050565b6000602082019050818103600083015261190c81611488565b9050919050565b6000602082019050818103600083015261192c816114c8565b9050919050565b6000602082019050818103600083015261194c81611508565b9050919050565b6000602082019050818103600083015261196c8161156e565b9050919050565b6000602082019050818103600083015261198c816115d4565b9050919050565b600060208201905081810360008301526119ac81611614565b9050919050565b600060208201905081810360008301526119cc8161167a565b9050919050565b600060208201905081810360008301526119ec816116e0565b9050919050565b60006020820190508181036000830152611a0c81611746565b9050919050565b60006020820190508181036000830152611a2c81611786565b9050919050565b6000602082019050611a4860008301846117ec565b92915050565b600081519050919050565b600082825260208201905092915050565b6000611a7582611d2e565b9150611a8083611d2e565b9250827fffffffffffffffffffffffffffffffffffffffffffffffffffffffffffffffff03821115611ab557611ab4611d9d565b5b828201905092915050565b6000611acb82611d2e565b9150611ad683611d2e565b925082611ae657611ae5611dcc565b5b828204905092915050565b6000808291508390505b6001851115611b3b57808604811115611b1757611b16611d9d565b5b6001851615611b265780820291505b8081029050611b3485611e3b565b9450611afb565b94509492505050565b6000611b4f82611d2e565b9150611b5a83611d2e565b9250611b877fffffffffffffffffffffffffffffffffffffffffffffffffffffffffffffffff8484611b8f565b905092915050565b600082611b9f5760019050611c5b565b81611bad5760009050611c5b565b8160018114611bc35760028114611bcd57611bfc565b6001915050611c5b565b60ff841115611bdf57611bde611d9d565b5b8360020a915084821115611bf657611bf5611d9d565b5b50611c5b565b5060208310610133831016604e8410600b8410161715611c315782820a905083811115611c2c57611c2b611d9d565b5b611c5b565b611c3e8484846001611af1565b92509050818404811115611c5557611c54611d9d565b5b81810290505b9392505050565b6000611c6d82611d2e565b9150611c7883611d2e565b9250817fffffffffffffffffffffffffffffffffffffffffffffffffffffffffffffffff0483118215151615611cb157611cb0611d9d565b5b828202905092915050565b6000611cc782611d2e565b9150611cd283611d2e565b925082821015611ce557611ce4611d9d565b5b828203905092915050565b6000611cfb82611d0e565b9050919050565b60008115159050919050565b600073ffffffffffffffffffffffffffffffffffffffff82169050919050565b6000819050919050565b60005b83811015611d56578082015181840152602081019050611d3b565b83811115611d65576000848401525b50505050565b60006002820490506001821680611d8357607f821691505b60208210811415611d9757611d96611dfb565b5b50919050565b7f4e487b7100000000000000000000000000000000000000000000000000000000600052601160045260246000fd5b7f4e487b7100000000000000000000000000000000000000000000000000000000600052601260045260246000fd5b7f4e487b7100000000000000000000000000000000000000000000000000000000600052602260045260246000fd5b6000601f19601f8301169050919050565b60008160011c9050919050565b611e5181611cf0565b8114611e5c57600080fd5b50565b611e6881611d2e565b8114611e7357600080fd5b5056fea2646970667358221220888a1063d969ac61cd92fcbdb13575cd6654e6f4c8420d691021c9ecbc67edd564736f6c63430008000033",
  "immutableReferences": {},
  "source": "// SPDX-License-Identifier: MIT\r\n// Assignment#3_ERC20, submitted by PIAIC114977 \r\n\r\npragma solidity ^0.8.0;\r\n\r\ninterface IERC20{\r\n    \r\n    function totalSupply() external view returns(uint256);\r\n    function balanceOf(address account) external view returns(uint256);\r\n    function transfer(address receipient, uint256 amount) external returns(bool);\r\n    function allowance(address owner, address spender) external returns(uint256);\r\n    function approve(address spender, uint256 amount) external returns(bool);\r\n    function transferFrom(address sender, address receipient, uint256 amount) external returns(bool);\r\n    \r\n    event Transfer(address indexed from, address indexed to, uint256 value);\r\n    event Approval(address indexed owner, address indexed spender, uint256 value);\r\n}\r\n\r\ncontract PIAIC114977_Token is IERC20{\r\n    \r\n    mapping (address => uint256) private _balances;\r\n    mapping (address => mapping (address => uint256)) private _allowances;\r\n    \r\n    uint256 private _totalSupply;\r\n    address public owner;\r\n    string public name;\r\n    string public symbol;\r\n    uint256 public decimals;\r\n    uint256 public tokenPrice;\r\n    \r\n    event Price(bool success,uint256 price);\r\n    event TokensSold(address owner, address recipient, uint256 numberOfTokens);\r\n    event AmountReceived(string);\r\n    \r\n    \r\n    constructor(uint256 _price) {\r\n        \r\n        require(_price > 0, \"BCC1: Token price must be valid\");\r\n        \r\n        owner = msg.sender;\r\n        name = \"PIAIC114977 Token\";\r\n        symbol = \"BCC-13\";\r\n        decimals = 18;\r\n        tokenPrice = _price;\r\n        \r\n        _totalSupply = 1000000 * 10 ** decimals;\r\n        _balances[owner] = _totalSupply;\r\n        \r\n        emit Transfer(address(this),owner,_totalSupply);\r\n    }\r\n    \r\n    modifier ownerOnly(){\r\n        require(msg.sender == owner, \"BCC1: Only token owner allowed\");\r\n        _;\r\n    }\r\n    \r\n    function totalSupply() external override view returns(uint256){\r\n        return _totalSupply;\r\n    }\r\n    \r\n    function balanceOf(address account) external override view returns(uint256){\r\n        return _balances[account];\r\n    }\r\n    \r\n    function transfer(address receipient, uint256 amount) public virtual override returns (bool){\r\n        address sender = msg.sender;\r\n        require(msg.sender != address(0), \"BCC1: Transfer from the zero address\");\r\n        require(receipient != address(0), \"BCC1: Transfer to the zero address\");\r\n        require(_balances[sender] > amount, \"BCC: Transfer amount exceeds balance\");\r\n        \r\n        _balances[sender] = _balances[sender] - amount;\r\n        _balances[receipient] = _balances[receipient] + amount;\r\n        \r\n        emit Transfer(sender, receipient, amount);\r\n        \r\n        return true;\r\n    }\r\n    \r\n    function allowance(address tokenOwner, address spender) public view virtual override returns(uint256){\r\n        return _allowances[tokenOwner][spender];\r\n    } \r\n    \r\n    function approve(address spender, uint256 amount) public virtual override returns(bool){\r\n        address tokenOwner = msg.sender;\r\n        require(tokenOwner != address(0), \"BCC1: Approve from the zero address\");\r\n        require(spender != address(0), \"BCC1: Transfer to the zero address\");\r\n        _allowances[tokenOwner][spender] = amount;\r\n        \r\n        emit Transfer(tokenOwner, spender,amount);\r\n        return true;\r\n    }\r\n    \r\n    function transferFrom(address tokenOwner, address receipient, uint256 amount) public virtual override returns(bool){\r\n        address spender = msg.sender;\r\n        uint256 _allowance =  _allowances[tokenOwner][spender];\r\n        require(_allowance > amount, \"BCC1: Transfer amount exceeds balance\");\r\n        \r\n        _allowance = _allowance - amount;\r\n        _balances[tokenOwner] = _balances[tokenOwner] - amount;\r\n        _balances[receipient] = _balances[receipient] + amount;\r\n        \r\n        emit Approval(tokenOwner, spender, amount);\r\n        \r\n        return true;\r\n    }\r\n    \r\n    function adjustPrice(uint256 _price) public ownerOnly returns(bool){\r\n        require(_price > 0, \"BCC1: Token price must be valid\");\r\n        tokenPrice = _price;\r\n        emit Price(true, _price);\r\n        return true;\r\n    } \r\n    \r\n    function buyToken() public payable returns(bool){\r\n    \r\n        address _recipient = msg.sender;\r\n        \r\n        require(_recipient != address(this), \"BCC1: Buyer cannot be a contract\");\r\n        require(_recipient != address(0), \"BCC1: Transfer to the zero address\");\r\n        require(msg.value > 0, \"BCC1: Amount must be valid\");\r\n        \r\n        \r\n        uint256 _numberOfTokens = (msg.value*10**decimals)/tokenPrice;\r\n       \r\n        require(_numberOfTokens > 0, \"BCC1: Number of tokens must be valid\");\r\n        require(_balances[owner] >= _numberOfTokens, \"BCC1: insufficient tokens\");\r\n        \r\n        _balances[owner] = _balances[owner] - _numberOfTokens; \r\n        \r\n        _balances[_recipient] = _balances[_recipient] + _numberOfTokens;\r\n        \r\n        //transfer incoming ethers(money) to contractOwner\r\n        payable(owner).transfer(msg.value);\r\n        \r\n        emit TokensSold(owner, _recipient, _numberOfTokens);\r\n        return true;\r\n    }\r\n    \r\n    /**\r\n     * This is fallback function and sends tokens if anyone sends ether\r\n     *\r\n     * - if anyone sends 1 wei than 100 tokens will be transferred to him/her if \r\n     * tokenPrice is 0.01 ether i.e 10000000000000000 wei (subject to change with tokenPrice)\r\n     */\r\n    \r\n    receive() external payable {\r\n        buyToken();\r\n        emit AmountReceived(\"Receive fallback\");\r\n    }\r\n    \r\n}",
  "sourcePath": "C:\\Users\\javaid.rauf\\Desktop\\Blockchain(BCC)\\Q3\\Truffle\\Truffle_ERC20\\contracts\\PIAIC114977_Token.sol",
  "compiler": {
    "name": "solc",
    "version": "0.8.0+commit.c7dfd78e.Emscripten.clang"
  },
  "schemaVersion": "3.4.3",
  "updatedAt": "2021-08-19T19:30:18.683Z",
  "networkType": "ethereum",
  "devdoc": {
    "kind": "dev",
    "methods": {},
    "version": 1
  },
  "userdoc": {
    "kind": "user",
    "methods": {},
    "version": 1
  }
}